{
  "_format": "hh-sol-artifact-1",
  "contractName": "FundTracker",
  "sourceName": "contracts/FundTracker.sol",
  "abi": [
    {
      "inputs": [],
      "stateMutability": "nonpayable",
      "type": "constructor"
    },
    {
      "anonymous": false,
      "inputs": [
        {
          "indexed": true,
          "internalType": "uint256",
          "name": "id",
          "type": "uint256"
        },
        {
          "indexed": false,
          "internalType": "string",
          "name": "name",
          "type": "string"
        },
        {
          "indexed": false,
          "internalType": "uint256",
          "name": "amount",
          "type": "uint256"
        }
      ],
      "name": "FundAdded",
      "type": "event"
    },
    {
      "anonymous": false,
      "inputs": [
        {
          "indexed": true,
          "internalType": "uint256",
          "name": "id",
          "type": "uint256"
        },
        {
          "indexed": false,
          "internalType": "uint256",
          "name": "amount",
          "type": "uint256"
        }
      ],
      "name": "FundUsed",
      "type": "event"
    },
    {
      "inputs": [
        {
          "internalType": "string",
          "name": "_name",
          "type": "string"
        },
        {
          "internalType": "uint256",
          "name": "_amount",
          "type": "uint256"
        }
      ],
      "name": "addScheme",
      "outputs": [],
      "stateMutability": "nonpayable",
      "type": "function"
    },
    {
      "inputs": [],
      "name": "admin",
      "outputs": [
        {
          "internalType": "address",
          "name": "",
          "type": "address"
        }
      ],
      "stateMutability": "view",
      "type": "function"
    },
    {
      "inputs": [
        {
          "internalType": "uint256",
          "name": "_id",
          "type": "uint256"
        }
      ],
      "name": "getScheme",
      "outputs": [
        {
          "components": [
            {
              "internalType": "uint256",
              "name": "id",
              "type": "uint256"
            },
            {
              "internalType": "string",
              "name": "name",
              "type": "string"
            },
            {
              "internalType": "uint256",
              "name": "totalFunds",
              "type": "uint256"
            },
            {
              "internalType": "uint256",
              "name": "usedFunds",
              "type": "uint256"
            }
          ],
          "internalType": "struct FundTracker.Scheme",
          "name": "",
          "type": "tuple"
        }
      ],
      "stateMutability": "view",
      "type": "function"
    },
    {
      "inputs": [],
      "name": "schemeCount",
      "outputs": [
        {
          "internalType": "uint256",
          "name": "",
          "type": "uint256"
        }
      ],
      "stateMutability": "view",
      "type": "function"
    },
    {
      "inputs": [
        {
          "internalType": "uint256",
          "name": "",
          "type": "uint256"
        }
      ],
      "name": "schemes",
      "outputs": [
        {
          "internalType": "uint256",
          "name": "id",
          "type": "uint256"
        },
        {
          "internalType": "string",
          "name": "name",
          "type": "string"
        },
        {
          "internalType": "uint256",
          "name": "totalFunds",
          "type": "uint256"
        },
        {
          "internalType": "uint256",
          "name": "usedFunds",
          "type": "uint256"
        }
      ],
      "stateMutability": "view",
      "type": "function"
    },
    {
      "inputs": [
        {
          "internalType": "uint256",
          "name": "_id",
          "type": "uint256"
        },
        {
          "internalType": "uint256",
          "name": "_amount",
          "type": "uint256"
        }
      ],
      "name": "useFund",
      "outputs": [],
      "stateMutability": "nonpayable",
      "type": "function"
    }
  ],
  "bytecode": "0x6080604052348015600f57600080fd5b50336000806101000a81548173ffffffffffffffffffffffffffffffffffffffff021916908373ffffffffffffffffffffffffffffffffffffffff160217905550610f898061005f6000396000f3fe608060405234801561001057600080fd5b50600436106100625760003560e01c8063088462dd1461006757806376e4deed1461008357806390e6b9701461009f578063bb52085e146100bd578063e35bb0fc146100f0578063f851a44014610120575b600080fd5b610081600480360381019061007c9190610618565b61013e565b005b61009d6004803603810190610098919061079e565b610291565b005b6100a76103e7565b6040516100b49190610809565b60405180910390f35b6100d760048036038101906100d29190610824565b6103ed565b6040516100e794939291906108d0565b60405180910390f35b61010a60048036038101906101059190610824565b6104a5565b60405161011791906109d8565b60405180910390f35b610128610582565b6040516101359190610a3b565b60405180910390f35b60008054906101000a900473ffffffffffffffffffffffffffffffffffffffff1673ffffffffffffffffffffffffffffffffffffffff163373ffffffffffffffffffffffffffffffffffffffff16146101cc576040517f08c379a00000000000000000000000000000000000000000000000000000000081526004016101c390610aa2565b60405180910390fd5b60006001600084815260200190815260200160002090508181600301546101f39190610af1565b81600201541015610239576040517f08c379a000000000000000000000000000000000000000000000000000000000815260040161023090610b71565b60405180910390fd5b8181600301600082825461024d9190610af1565b92505081905550827fe591f5f4cc74f30f1f0e189119c47dbb65f76ff8ad566a6acb0dc805e8ca87a0836040516102849190610809565b60405180910390a2505050565b60008054906101000a900473ffffffffffffffffffffffffffffffffffffffff1673ffffffffffffffffffffffffffffffffffffffff163373ffffffffffffffffffffffffffffffffffffffff161461031f576040517f08c379a000000000000000000000000000000000000000000000000000000000815260040161031690610bdd565b60405180910390fd5b6002600081548092919061033290610bfd565b919050555060405180608001604052806002548152602001838152602001828152602001600081525060016000600254815260200190815260200160002060008201518160000155602082015181600101908161038f9190610e51565b5060408201518160020155606082015181600301559050506002547fbecc7f0bd07f34b4d541d52ca06caa33b0f3b1d897160c1fd70b10297afe29b483836040516103db929190610f23565b60405180910390a25050565b60025481565b600160205280600052604060002060009150905080600001549080600101805461041690610c74565b80601f016020809104026020016040519081016040528092919081815260200182805461044290610c74565b801561048f5780601f106104645761010080835404028352916020019161048f565b820191906000526020600020905b81548152906001019060200180831161047257829003601f168201915b5050505050908060020154908060030154905084565b6104ad6105a6565b60016000838152602001908152602001600020604051806080016040529081600082015481526020016001820180546104e590610c74565b80601f016020809104026020016040519081016040528092919081815260200182805461051190610c74565b801561055e5780601f106105335761010080835404028352916020019161055e565b820191906000526020600020905b81548152906001019060200180831161054157829003601f168201915b50505050508152602001600282015481526020016003820154815250509050919050565b60008054906101000a900473ffffffffffffffffffffffffffffffffffffffff1681565b6040518060800160405280600081526020016060815260200160008152602001600081525090565b6000604051905090565b600080fd5b600080fd5b6000819050919050565b6105f5816105e2565b811461060057600080fd5b50565b600081359050610612816105ec565b92915050565b6000806040838503121561062f5761062e6105d8565b5b600061063d85828601610603565b925050602061064e85828601610603565b9150509250929050565b600080fd5b600080fd5b6000601f19601f8301169050919050565b7f4e487b7100000000000000000000000000000000000000000000000000000000600052604160045260246000fd5b6106ab82610662565b810181811067ffffffffffffffff821117156106ca576106c9610673565b5b80604052505050565b60006106dd6105ce565b90506106e982826106a2565b919050565b600067ffffffffffffffff82111561070957610708610673565b5b61071282610662565b9050602081019050919050565b82818337600083830152505050565b600061074161073c846106ee565b6106d3565b90508281526020810184848401111561075d5761075c61065d565b5b61076884828561071f565b509392505050565b600082601f83011261078557610784610658565b5b813561079584826020860161072e565b91505092915050565b600080604083850312156107b5576107b46105d8565b5b600083013567ffffffffffffffff8111156107d3576107d26105dd565b5b6107df85828601610770565b92505060206107f085828601610603565b9150509250929050565b610803816105e2565b82525050565b600060208201905061081e60008301846107fa565b92915050565b60006020828403121561083a576108396105d8565b5b600061084884828501610603565b91505092915050565b600081519050919050565b600082825260208201905092915050565b60005b8381101561088b578082015181840152602081019050610870565b60008484015250505050565b60006108a282610851565b6108ac818561085c565b93506108bc81856020860161086d565b6108c581610662565b840191505092915050565b60006080820190506108e560008301876107fa565b81810360208301526108f78186610897565b905061090660408301856107fa565b61091360608301846107fa565b95945050505050565b610925816105e2565b82525050565b600082825260208201905092915050565b600061094782610851565b610951818561092b565b935061096181856020860161086d565b61096a81610662565b840191505092915050565b600060808301600083015161098d600086018261091c565b50602083015184820360208601526109a5828261093c565b91505060408301516109ba604086018261091c565b5060608301516109cd606086018261091c565b508091505092915050565b600060208201905081810360008301526109f28184610975565b905092915050565b600073ffffffffffffffffffffffffffffffffffffffff82169050919050565b6000610a25826109fa565b9050919050565b610a3581610a1a565b82525050565b6000602082019050610a506000830184610a2c565b92915050565b7f4f6e6c792061646d696e2063616e207573652066756e64000000000000000000600082015250565b6000610a8c60178361085c565b9150610a9782610a56565b602082019050919050565b60006020820190508181036000830152610abb81610a7f565b9050919050565b7f4e487b7100000000000000000000000000000000000000000000000000000000600052601160045260246000fd5b6000610afc826105e2565b9150610b07836105e2565b9250828201905080821115610b1f57610b1e610ac2565b5b92915050565b7f4e6f7420656e6f7567682066756e647300000000000000000000000000000000600082015250565b6000610b5b60108361085c565b9150610b6682610b25565b602082019050919050565b60006020820190508181036000830152610b8a81610b4e565b9050919050565b7f4f6e6c792061646d696e2063616e2061646420736368656d6500000000000000600082015250565b6000610bc760198361085c565b9150610bd282610b91565b602082019050919050565b60006020820190508181036000830152610bf681610bba565b9050919050565b6000610c08826105e2565b91507fffffffffffffffffffffffffffffffffffffffffffffffffffffffffffffffff8203610c3a57610c39610ac2565b5b600182019050919050565b7f4e487b7100000000000000000000000000000000000000000000000000000000600052602260045260246000fd5b60006002820490506001821680610c8c57607f821691505b602082108103610c9f57610c9e610c45565b5b50919050565b60008190508160005260206000209050919050565b60006020601f8301049050919050565b600082821b905092915050565b600060088302610d077fffffffffffffffffffffffffffffffffffffffffffffffffffffffffffffffff82610cca565b610d118683610cca565b95508019841693508086168417925050509392505050565b6000819050919050565b6000610d4e610d49610d44846105e2565b610d29565b6105e2565b9050919050565b6000819050919050565b610d6883610d33565b610d7c610d7482610d55565b848454610cd7565b825550505050565b600090565b610d91610d84565b610d9c818484610d5f565b505050565b5b81811015610dc057610db5600082610d89565b600181019050610da2565b5050565b601f821115610e0557610dd681610ca5565b610ddf84610cba565b81016020851015610dee578190505b610e02610dfa85610cba565b830182610da1565b50505b505050565b600082821c905092915050565b6000610e2860001984600802610e0a565b1980831691505092915050565b6000610e418383610e17565b9150826002028217905092915050565b610e5a82610851565b67ffffffffffffffff811115610e7357610e72610673565b5b610e7d8254610c74565b610e88828285610dc4565b600060209050601f831160018114610ebb5760008415610ea9578287015190505b610eb38582610e35565b865550610f1b565b601f198416610ec986610ca5565b60005b82811015610ef157848901518255600182019150602085019450602081019050610ecc565b86831015610f0e5784890151610f0a601f891682610e17565b8355505b6001600288020188555050505b505050505050565b60006040820190508181036000830152610f3d8185610897565b9050610f4c60208301846107fa565b939250505056fea2646970667358221220fd7c139d52beb910385e4be6b76eeccdeed2698636c519572c46e0091c0cdae764736f6c634300081c0033",
  "linkReferences": {},
  "deployedLinkReferences": {}
}