{"contracts/FundTracker.sol":{"FundTracker":{"abi":[{"inputs":[],"stateMutability":"nonpayable","type":"constructor"},{"anonymous":false,"inputs":[{"indexed":true,"internalType":"uint256","name":"id","type":"uint256"},{"indexed":false,"internalType":"string","name":"name","type":"string"},{"indexed":false,"internalType":"uint256","name":"amount","type":"uint256"}],"name":"FundAdded","type":"event"},{"anonymous":false,"inputs":[{"indexed":true,"internalType":"uint256","name":"id","type":"uint256"},{"indexed":false,"internalType":"uint256","name":"amount","type":"uint256"}],"name":"FundUsed","type":"event"},{"inputs":[{"internalType":"string","name":"_name","type":"string"},{"internalType":"uint256","name":"_amount","type":"uint256"}],"name":"addScheme","outputs":[],"stateMutability":"nonpayable","type":"function"},{"inputs":[],"name":"admin","outputs":[{"internalType":"address","name":"","type":"address"}],"stateMutability":"view","type":"function"},{"inputs":[{"internalType":"uint256","name":"_id","type":"uint256"}],"name":"getScheme","outputs":[{"components":[{"internalType":"uint256","name":"id","type":"uint256"},{"internalType":"string","name":"name","type":"string"},{"internalType":"uint256","name":"totalFunds","type":"uint256"},{"internalType":"uint256","name":"usedFunds","type":"uint256"}],"internalType":"struct FundTracker.Scheme","name":"","type":"tuple"}],"stateMutability":"view","type":"function"},{"inputs":[],"name":"schemeCount","outputs":[{"internalType":"uint256","name":"","type":"uint256"}],"stateMutability":"view","type":"function"},{"inputs":[{"internalType":"uint256","name":"","type":"uint256"}],"name":"schemes","outputs":[{"internalType":"uint256","name":"id","type":"uint256"},{"internalType":"string","name":"name","type":"string"},{"internalType":"uint256","name":"totalFunds","type":"uint256"},{"internalType":"uint256","name":"usedFunds","type":"uint256"}],"stateMutability":"view","type":"function"},{"inputs":[{"internalType":"uint256","name":"_id","type":"uint256"},{"internalType":"uint256","name":"_amount","type":"uint256"}],"name":"useFund","outputs":[],"stateMutability":"nonpayable","type":"function"}],"evm":{"bytecode":{"linkReferences":{},"object":"6080604052348015600f57600080fd5b50336000806101000a81548173ffffffffffffffffffffffffffffffffffffffff021916908373ffffffffffffffffffffffffffffffffffffffff160217905550610f898061005f6000396000f3fe608060405234801561001057600080fd5b50600436106100625760003560e01c8063088462dd1461006757806376e4deed1461008357806390e6b9701461009f578063bb52085e146100bd578063e35bb0fc146100f0578063f851a44014610120575b600080fd5b610081600480360381019061007c9190610618565b61013e565b005b61009d6004803603810190610098919061079e565b610291565b005b6100a76103e7565b6040516100b49190610809565b60405180910390f35b6100d760048036038101906100d29190610824565b6103ed565b6040516100e794939291906108d0565b60405180910390f35b61010a60048036038101906101059190610824565b6104a5565b60405161011791906109d8565b60405180910390f35b610128610582565b6040516101359190610a3b565b60405180910390f35b60008054906101000a900473ffffffffffffffffffffffffffffffffffffffff1673ffffffffffffffffffffffffffffffffffffffff163373ffffffffffffffffffffffffffffffffffffffff16146101cc576040517f08c379a00000000000000000000000000000000000000000000000000000000081526004016101c390610aa2565b60405180910390fd5b60006001600084815260200190815260200160002090508181600301546101f39190610af1565b81600201541015610239576040517f08c379a000000000000000000000000000000000000000000000000000000000815260040161023090610b71565b60405180910390fd5b8181600301600082825461024d9190610af1565b92505081905550827fe591f5f4cc74f30f1f0e189119c47dbb65f76ff8ad566a6acb0dc805e8ca87a0836040516102849190610809565b60405180910390a2505050565b60008054906101000a900473ffffffffffffffffffffffffffffffffffffffff1673ffffffffffffffffffffffffffffffffffffffff163373ffffffffffffffffffffffffffffffffffffffff161461031f576040517f08c379a000000000000000000000000000000000000000000000000000000000815260040161031690610bdd565b60405180910390fd5b6002600081548092919061033290610bfd565b919050555060405180608001604052806002548152602001838152602001828152602001600081525060016000600254815260200190815260200160002060008201518160000155602082015181600101908161038f9190610e51565b5060408201518160020155606082015181600301559050506002547fbecc7f0bd07f34b4d541d52ca06caa33b0f3b1d897160c1fd70b10297afe29b483836040516103db929190610f23565b60405180910390a25050565b60025481565b600160205280600052604060002060009150905080600001549080600101805461041690610c74565b80601f016020809104026020016040519081016040528092919081815260200182805461044290610c74565b801561048f5780601f106104645761010080835404028352916020019161048f565b820191906000526020600020905b81548152906001019060200180831161047257829003601f168201915b5050505050908060020154908060030154905084565b6104ad6105a6565b60016000838152602001908152602001600020604051806080016040529081600082015481526020016001820180546104e590610c74565b80601f016020809104026020016040519081016040528092919081815260200182805461051190610c74565b801561055e5780601f106105335761010080835404028352916020019161055e565b820191906000526020600020905b81548152906001019060200180831161054157829003601f168201915b50505050508152602001600282015481526020016003820154815250509050919050565b60008054906101000a900473ffffffffffffffffffffffffffffffffffffffff1681565b6040518060800160405280600081526020016060815260200160008152602001600081525090565b6000604051905090565b600080fd5b600080fd5b6000819050919050565b6105f5816105e2565b811461060057600080fd5b50565b600081359050610612816105ec565b92915050565b6000806040838503121561062f5761062e6105d8565b5b600061063d85828601610603565b925050602061064e85828601610603565b9150509250929050565b600080fd5b600080fd5b6000601f19601f8301169050919050565b7f4e487b7100000000000000000000000000000000000000000000000000000000600052604160045260246000fd5b6106ab82610662565b810181811067ffffffffffffffff821117156106ca576106c9610673565b5b80604052505050565b60006106dd6105ce565b90506106e982826106a2565b919050565b600067ffffffffffffffff82111561070957610708610673565b5b61071282610662565b9050602081019050919050565b82818337600083830152505050565b600061074161073c846106ee565b6106d3565b90508281526020810184848401111561075d5761075c61065d565b5b61076884828561071f565b509392505050565b600082601f83011261078557610784610658565b5b813561079584826020860161072e565b91505092915050565b600080604083850312156107b5576107b46105d8565b5b600083013567ffffffffffffffff8111156107d3576107d26105dd565b5b6107df85828601610770565b92505060206107f085828601610603565b9150509250929050565b610803816105e2565b82525050565b600060208201905061081e60008301846107fa565b92915050565b60006020828403121561083a576108396105d8565b5b600061084884828501610603565b91505092915050565b600081519050919050565b600082825260208201905092915050565b60005b8381101561088b578082015181840152602081019050610870565b60008484015250505050565b60006108a282610851565b6108ac818561085c565b93506108bc81856020860161086d565b6108c581610662565b840191505092915050565b60006080820190506108e560008301876107fa565b81810360208301526108f78186610897565b905061090660408301856107fa565b61091360608301846107fa565b95945050505050565b610925816105e2565b82525050565b600082825260208201905092915050565b600061094782610851565b610951818561092b565b935061096181856020860161086d565b61096a81610662565b840191505092915050565b600060808301600083015161098d600086018261091c565b50602083015184820360208601526109a5828261093c565b91505060408301516109ba604086018261091c565b5060608301516109cd606086018261091c565b508091505092915050565b600060208201905081810360008301526109f28184610975565b905092915050565b600073ffffffffffffffffffffffffffffffffffffffff82169050919050565b6000610a25826109fa565b9050919050565b610a3581610a1a565b82525050565b6000602082019050610a506000830184610a2c565b92915050565b7f4f6e6c792061646d696e2063616e207573652066756e64000000000000000000600082015250565b6000610a8c60178361085c565b9150610a9782610a56565b602082019050919050565b60006020820190508181036000830152610abb81610a7f565b9050919050565b7f4e487b7100000000000000000000000000000000000000000000000000000000600052601160045260246000fd5b6000610afc826105e2565b9150610b07836105e2565b9250828201905080821115610b1f57610b1e610ac2565b5b92915050565b7f4e6f7420656e6f7567682066756e647300000000000000000000000000000000600082015250565b6000610b5b60108361085c565b9150610b6682610b25565b602082019050919050565b60006020820190508181036000830152610b8a81610b4e565b9050919050565b7f4f6e6c792061646d696e2063616e2061646420736368656d6500000000000000600082015250565b6000610bc760198361085c565b9150610bd282610b91565b602082019050919050565b60006020820190508181036000830152610bf681610bba565b9050919050565b6000610c08826105e2565b91507fffffffffffffffffffffffffffffffffffffffffffffffffffffffffffffffff8203610c3a57610c39610ac2565b5b600182019050919050565b7f4e487b7100000000000000000000000000000000000000000000000000000000600052602260045260246000fd5b60006002820490506001821680610c8c57607f821691505b602082108103610c9f57610c9e610c45565b5b50919050565b60008190508160005260206000209050919050565b60006020601f8301049050919050565b600082821b905092915050565b600060088302610d077fffffffffffffffffffffffffffffffffffffffffffffffffffffffffffffffff82610cca565b610d118683610cca565b95508019841693508086168417925050509392505050565b6000819050919050565b6000610d4e610d49610d44846105e2565b610d29565b6105e2565b9050919050565b6000819050919050565b610d6883610d33565b610d7c610d7482610d55565b848454610cd7565b825550505050565b600090565b610d91610d84565b610d9c818484610d5f565b505050565b5b81811015610dc057610db5600082610d89565b600181019050610da2565b5050565b601f821115610e0557610dd681610ca5565b610ddf84610cba565b81016020851015610dee578190505b610e02610dfa85610cba565b830182610da1565b50505b505050565b600082821c905092915050565b6000610e2860001984600802610e0a565b1980831691505092915050565b6000610e418383610e17565b9150826002028217905092915050565b610e5a82610851565b67ffffffffffffffff811115610e7357610e72610673565b5b610e7d8254610c74565b610e88828285610dc4565b600060209050601f831160018114610ebb5760008415610ea9578287015190505b610eb38582610e35565b865550610f1b565b601f198416610ec986610ca5565b60005b82811015610ef157848901518255600182019150602085019450602081019050610ecc565b86831015610f0e5784890151610f0a601f891682610e17565b8355505b6001600288020188555050505b505050505050565b60006040820190508181036000830152610f3d8185610897565b9050610f4c60208301846107fa565b939250505056fea2646970667358221220fd7c139d52beb910385e4be6b76eeccdeed2698636c519572c46e0091c0cdae764736f6c634300081c0033","opcodes":"PUSH1 0x80 PUSH1 0x40 MSTORE CALLVALUE DUP1 ISZERO PUSH1 0xF JUMPI PUSH1 0x0 DUP1 REVERT JUMPDEST POP CALLER PUSH1 0x0 DUP1 PUSH2 0x100 EXP DUP2 SLOAD DUP2 PUSH20 0xFFFFFFFFFFFFFFFFFFFFFFFFFFFFFFFFFFFFFFFF MUL NOT AND SWAP1 DUP4 PUSH20 0xFFFFFFFFFFFFFFFFFFFFFFFFFFFFFFFFFFFFFFFF AND MUL OR SWAP1 SSTORE POP PUSH2 0xF89 DUP1 PUSH2 0x5F PUSH1 0x0 CODECOPY PUSH1 0x0 RETURN INVALID PUSH1 0x80 PUSH1 0x40 MSTORE CALLVALUE DUP1 ISZERO PUSH2 0x10 JUMPI PUSH1 0x0 DUP1 REVERT JUMPDEST POP PUSH1 0x4 CALLDATASIZE LT PUSH2 0x62 JUMPI PUSH1 0x0 CALLDATALOAD PUSH1 0xE0 SHR DUP1 PUSH4 0x88462DD EQ PUSH2 0x67 JUMPI DUP1 PUSH4 0x76E4DEED EQ PUSH2 0x83 JUMPI DUP1 PUSH4 0x90E6B970 EQ PUSH2 0x9F JUMPI DUP1 PUSH4 0xBB52085E EQ PUSH2 0xBD JUMPI DUP1 PUSH4 0xE35BB0FC EQ PUSH2 0xF0 JUMPI DUP1 PUSH4 0xF851A440 EQ PUSH2 0x120 JUMPI JUMPDEST PUSH1 0x0 DUP1 REVERT JUMPDEST PUSH2 0x81 PUSH1 0x4 DUP1 CALLDATASIZE SUB DUP2 ADD SWAP1 PUSH2 0x7C SWAP2 SWAP1 PUSH2 0x618 JUMP JUMPDEST PUSH2 0x13E JUMP JUMPDEST STOP JUMPDEST PUSH2 0x9D PUSH1 0x4 DUP1 CALLDATASIZE SUB DUP2 ADD SWAP1 PUSH2 0x98 SWAP2 SWAP1 PUSH2 0x79E JUMP JUMPDEST PUSH2 0x291 JUMP JUMPDEST STOP JUMPDEST PUSH2 0xA7 PUSH2 0x3E7 JUMP JUMPDEST PUSH1 0x40 MLOAD PUSH2 0xB4 SWAP2 SWAP1 PUSH2 0x809 JUMP JUMPDEST PUSH1 0x40 MLOAD DUP1 SWAP2 SUB SWAP1 RETURN JUMPDEST PUSH2 0xD7 PUSH1 0x4 DUP1 CALLDATASIZE SUB DUP2 ADD SWAP1 PUSH2 0xD2 SWAP2 SWAP1 PUSH2 0x824 JUMP JUMPDEST PUSH2 0x3ED JUMP JUMPDEST PUSH1 0x40 MLOAD PUSH2 0xE7 SWAP5 SWAP4 SWAP3 SWAP2 SWAP1 PUSH2 0x8D0 JUMP JUMPDEST PUSH1 0x40 MLOAD DUP1 SWAP2 SUB SWAP1 RETURN JUMPDEST PUSH2 0x10A PUSH1 0x4 DUP1 CALLDATASIZE SUB DUP2 ADD SWAP1 PUSH2 0x105 SWAP2 SWAP1 PUSH2 0x824 JUMP JUMPDEST PUSH2 0x4A5 JUMP JUMPDEST PUSH1 0x40 MLOAD PUSH2 0x117 SWAP2 SWAP1 PUSH2 0x9D8 JUMP JUMPDEST PUSH1 0x40 MLOAD DUP1 SWAP2 SUB SWAP1 RETURN JUMPDEST PUSH2 0x128 PUSH2 0x582 JUMP JUMPDEST PUSH1 0x40 MLOAD PUSH2 0x135 SWAP2 SWAP1 PUSH2 0xA3B JUMP JUMPDEST PUSH1 0x40 MLOAD DUP1 SWAP2 SUB SWAP1 RETURN JUMPDEST PUSH1 0x0 DUP1 SLOAD SWAP1 PUSH2 0x100 EXP SWAP1 DIV PUSH20 0xFFFFFFFFFFFFFFFFFFFFFFFFFFFFFFFFFFFFFFFF AND PUSH20 0xFFFFFFFFFFFFFFFFFFFFFFFFFFFFFFFFFFFFFFFF AND CALLER PUSH20 0xFFFFFFFFFFFFFFFFFFFFFFFFFFFFFFFFFFFFFFFF AND EQ PUSH2 0x1CC JUMPI PUSH1 0x40 MLOAD PUSH32 0x8C379A000000000000000000000000000000000000000000000000000000000 DUP2 MSTORE PUSH1 0x4 ADD PUSH2 0x1C3 SWAP1 PUSH2 0xAA2 JUMP JUMPDEST PUSH1 0x40 MLOAD DUP1 SWAP2 SUB SWAP1 REVERT JUMPDEST PUSH1 0x0 PUSH1 0x1 PUSH1 0x0 DUP5 DUP2 MSTORE PUSH1 0x20 ADD SWAP1 DUP2 MSTORE PUSH1 0x20 ADD PUSH1 0x0 KECCAK256 SWAP1 POP DUP2 DUP2 PUSH1 0x3 ADD SLOAD PUSH2 0x1F3 SWAP2 SWAP1 PUSH2 0xAF1 JUMP JUMPDEST DUP2 PUSH1 0x2 ADD SLOAD LT ISZERO PUSH2 0x239 JUMPI PUSH1 0x40 MLOAD PUSH32 0x8C379A000000000000000000000000000000000000000000000000000000000 DUP2 MSTORE PUSH1 0x4 ADD PUSH2 0x230 SWAP1 PUSH2 0xB71 JUMP JUMPDEST PUSH1 0x40 MLOAD DUP1 SWAP2 SUB SWAP1 REVERT JUMPDEST DUP2 DUP2 PUSH1 0x3 ADD PUSH1 0x0 DUP3 DUP3 SLOAD PUSH2 0x24D SWAP2 SWAP1 PUSH2 0xAF1 JUMP JUMPDEST SWAP3 POP POP DUP2 SWAP1 SSTORE POP DUP3 PUSH32 0xE591F5F4CC74F30F1F0E189119C47DBB65F76FF8AD566A6ACB0DC805E8CA87A0 DUP4 PUSH1 0x40 MLOAD PUSH2 0x284 SWAP2 SWAP1 PUSH2 0x809 JUMP JUMPDEST PUSH1 0x40 MLOAD DUP1 SWAP2 SUB SWAP1 LOG2 POP POP POP JUMP JUMPDEST PUSH1 0x0 DUP1 SLOAD SWAP1 PUSH2 0x100 EXP SWAP1 DIV PUSH20 0xFFFFFFFFFFFFFFFFFFFFFFFFFFFFFFFFFFFFFFFF AND PUSH20 0xFFFFFFFFFFFFFFFFFFFFFFFFFFFFFFFFFFFFFFFF AND CALLER PUSH20 0xFFFFFFFFFFFFFFFFFFFFFFFFFFFFFFFFFFFFFFFF AND EQ PUSH2 0x31F JUMPI PUSH1 0x40 MLOAD PUSH32 0x8C379A000000000000000000000000000000000000000000000000000000000 DUP2 MSTORE PUSH1 0x4 ADD PUSH2 0x316 SWAP1 PUSH2 0xBDD JUMP JUMPDEST PUSH1 0x40 MLOAD DUP1 SWAP2 SUB SWAP1 REVERT JUMPDEST PUSH1 0x2 PUSH1 0x0 DUP2 SLOAD DUP1 SWAP3 SWAP2 SWAP1 PUSH2 0x332 SWAP1 PUSH2 0xBFD JUMP JUMPDEST SWAP2 SWAP1 POP SSTORE POP PUSH1 0x40 MLOAD DUP1 PUSH1 0x80 ADD PUSH1 0x40 MSTORE DUP1 PUSH1 0x2 SLOAD DUP2 MSTORE PUSH1 0x20 ADD DUP4 DUP2 MSTORE PUSH1 0x20 ADD DUP3 DUP2 MSTORE PUSH1 0x20 ADD PUSH1 0x0 DUP2 MSTORE POP PUSH1 0x1 PUSH1 0x0 PUSH1 0x2 SLOAD DUP2 MSTORE PUSH1 0x20 ADD SWAP1 DUP2 MSTORE PUSH1 0x20 ADD PUSH1 0x0 KECCAK256 PUSH1 0x0 DUP3 ADD MLOAD DUP2 PUSH1 0x0 ADD SSTORE PUSH1 0x20 DUP3 ADD MLOAD DUP2 PUSH1 0x1 ADD SWAP1 DUP2 PUSH2 0x38F SWAP2 SWAP1 PUSH2 0xE51 JUMP JUMPDEST POP PUSH1 0x40 DUP3 ADD MLOAD DUP2 PUSH1 0x2 ADD SSTORE PUSH1 0x60 DUP3 ADD MLOAD DUP2 PUSH1 0x3 ADD SSTORE SWAP1 POP POP PUSH1 0x2 SLOAD PUSH32 0xBECC7F0BD07F34B4D541D52CA06CAA33B0F3B1D897160C1FD70B10297AFE29B4 DUP4 DUP4 PUSH1 0x40 MLOAD PUSH2 0x3DB SWAP3 SWAP2 SWAP1 PUSH2 0xF23 JUMP JUMPDEST PUSH1 0x40 MLOAD DUP1 SWAP2 SUB SWAP1 LOG2 POP POP JUMP JUMPDEST PUSH1 0x2 SLOAD DUP2 JUMP JUMPDEST PUSH1 0x1 PUSH1 0x20 MSTORE DUP1 PUSH1 0x0 MSTORE PUSH1 0x40 PUSH1 0x0 KECCAK256 PUSH1 0x0 SWAP2 POP SWAP1 POP DUP1 PUSH1 0x0 ADD SLOAD SWAP1 DUP1 PUSH1 0x1 ADD DUP1 SLOAD PUSH2 0x416 SWAP1 PUSH2 0xC74 JUMP JUMPDEST DUP1 PUSH1 0x1F ADD PUSH1 0x20 DUP1 SWAP2 DIV MUL PUSH1 0x20 ADD PUSH1 0x40 MLOAD SWAP1 DUP2 ADD PUSH1 0x40 MSTORE DUP1 SWAP3 SWAP2 SWAP1 DUP2 DUP2 MSTORE PUSH1 0x20 ADD DUP3 DUP1 SLOAD PUSH2 0x442 SWAP1 PUSH2 0xC74 JUMP JUMPDEST DUP1 ISZERO PUSH2 0x48F JUMPI DUP1 PUSH1 0x1F LT PUSH2 0x464 JUMPI PUSH2 0x100 DUP1 DUP4 SLOAD DIV MUL DUP4 MSTORE SWAP2 PUSH1 0x20 ADD SWAP2 PUSH2 0x48F JUMP JUMPDEST DUP3 ADD SWAP2 SWAP1 PUSH1 0x0 MSTORE PUSH1 0x20 PUSH1 0x0 KECCAK256 SWAP1 JUMPDEST DUP2 SLOAD DUP2 MSTORE SWAP1 PUSH1 0x1 ADD SWAP1 PUSH1 0x20 ADD DUP1 DUP4 GT PUSH2 0x472 JUMPI DUP3 SWAP1 SUB PUSH1 0x1F AND DUP3 ADD SWAP2 JUMPDEST POP POP POP POP POP SWAP1 DUP1 PUSH1 0x2 ADD SLOAD SWAP1 DUP1 PUSH1 0x3 ADD SLOAD SWAP1 POP DUP5 JUMP JUMPDEST PUSH2 0x4AD PUSH2 0x5A6 JUMP JUMPDEST PUSH1 0x1 PUSH1 0x0 DUP4 DUP2 MSTORE PUSH1 0x20 ADD SWAP1 DUP2 MSTORE PUSH1 0x20 ADD PUSH1 0x0 KECCAK256 PUSH1 0x40 MLOAD DUP1 PUSH1 0x80 ADD PUSH1 0x40 MSTORE SWAP1 DUP2 PUSH1 0x0 DUP3 ADD SLOAD DUP2 MSTORE PUSH1 0x20 ADD PUSH1 0x1 DUP3 ADD DUP1 SLOAD PUSH2 0x4E5 SWAP1 PUSH2 0xC74 JUMP JUMPDEST DUP1 PUSH1 0x1F ADD PUSH1 0x20 DUP1 SWAP2 DIV MUL PUSH1 0x20 ADD PUSH1 0x40 MLOAD SWAP1 DUP2 ADD PUSH1 0x40 MSTORE DUP1 SWAP3 SWAP2 SWAP1 DUP2 DUP2 MSTORE PUSH1 0x20 ADD DUP3 DUP1 SLOAD PUSH2 0x511 SWAP1 PUSH2 0xC74 JUMP JUMPDEST DUP1 ISZERO PUSH2 0x55E JUMPI DUP1 PUSH1 0x1F LT PUSH2 0x533 JUMPI PUSH2 0x100 DUP1 DUP4 SLOAD DIV MUL DUP4 MSTORE SWAP2 PUSH1 0x20 ADD SWAP2 PUSH2 0x55E JUMP JUMPDEST DUP3 ADD SWAP2 SWAP1 PUSH1 0x0 MSTORE PUSH1 0x20 PUSH1 0x0 KECCAK256 SWAP1 JUMPDEST DUP2 SLOAD DUP2 MSTORE SWAP1 PUSH1 0x1 ADD SWAP1 PUSH1 0x20 ADD DUP1 DUP4 GT PUSH2 0x541 JUMPI DUP3 SWAP1 SUB PUSH1 0x1F AND DUP3 ADD SWAP2 JUMPDEST POP POP POP POP POP DUP2 MSTORE PUSH1 0x20 ADD PUSH1 0x2 DUP3 ADD SLOAD DUP2 MSTORE PUSH1 0x20 ADD PUSH1 0x3 DUP3 ADD SLOAD DUP2 MSTORE POP POP SWAP1 POP SWAP2 SWAP1 POP JUMP JUMPDEST PUSH1 0x0 DUP1 SLOAD SWAP1 PUSH2 0x100 EXP SWAP1 DIV PUSH20 0xFFFFFFFFFFFFFFFFFFFFFFFFFFFFFFFFFFFFFFFF AND DUP2 JUMP JUMPDEST PUSH1 0x40 MLOAD DUP1 PUSH1 0x80 ADD PUSH1 0x40 MSTORE DUP1 PUSH1 0x0 DUP2 MSTORE PUSH1 0x20 ADD PUSH1 0x60 DUP2 MSTORE PUSH1 0x20 ADD PUSH1 0x0 DUP2 MSTORE PUSH1 0x20 ADD PUSH1 0x0 DUP2 MSTORE POP SWAP1 JUMP JUMPDEST PUSH1 0x0 PUSH1 0x40 MLOAD SWAP1 POP SWAP1 JUMP JUMPDEST PUSH1 0x0 DUP1 REVERT JUMPDEST PUSH1 0x0 DUP1 REVERT JUMPDEST PUSH1 0x0 DUP2 SWAP1 POP SWAP2 SWAP1 POP JUMP JUMPDEST PUSH2 0x5F5 DUP2 PUSH2 0x5E2 JUMP JUMPDEST DUP2 EQ PUSH2 0x600 JUMPI PUSH1 0x0 DUP1 REVERT JUMPDEST POP JUMP JUMPDEST PUSH1 0x0 DUP2 CALLDATALOAD SWAP1 POP PUSH2 0x612 DUP2 PUSH2 0x5EC JUMP JUMPDEST SWAP3 SWAP2 POP POP JUMP JUMPDEST PUSH1 0x0 DUP1 PUSH1 0x40 DUP4 DUP6 SUB SLT ISZERO PUSH2 0x62F JUMPI PUSH2 0x62E PUSH2 0x5D8 JUMP JUMPDEST JUMPDEST PUSH1 0x0 PUSH2 0x63D DUP6 DUP3 DUP7 ADD PUSH2 0x603 JUMP JUMPDEST SWAP3 POP POP PUSH1 0x20 PUSH2 0x64E DUP6 DUP3 DUP7 ADD PUSH2 0x603 JUMP JUMPDEST SWAP2 POP POP SWAP3 POP SWAP3 SWAP1 POP JUMP JUMPDEST PUSH1 0x0 DUP1 REVERT JUMPDEST PUSH1 0x0 DUP1 REVERT JUMPDEST PUSH1 0x0 PUSH1 0x1F NOT PUSH1 0x1F DUP4 ADD AND SWAP1 POP SWAP2 SWAP1 POP JUMP JUMPDEST PUSH32 0x4E487B7100000000000000000000000000000000000000000000000000000000 PUSH1 0x0 MSTORE PUSH1 0x41 PUSH1 0x4 MSTORE PUSH1 0x24 PUSH1 0x0 REVERT JUMPDEST PUSH2 0x6AB DUP3 PUSH2 0x662 JUMP JUMPDEST DUP2 ADD DUP2 DUP2 LT PUSH8 0xFFFFFFFFFFFFFFFF DUP3 GT OR ISZERO PUSH2 0x6CA JUMPI PUSH2 0x6C9 PUSH2 0x673 JUMP JUMPDEST JUMPDEST DUP1 PUSH1 0x40 MSTORE POP POP POP JUMP JUMPDEST PUSH1 0x0 PUSH2 0x6DD PUSH2 0x5CE JUMP JUMPDEST SWAP1 POP PUSH2 0x6E9 DUP3 DUP3 PUSH2 0x6A2 JUMP JUMPDEST SWAP2 SWAP1 POP JUMP JUMPDEST PUSH1 0x0 PUSH8 0xFFFFFFFFFFFFFFFF DUP3 GT ISZERO PUSH2 0x709 JUMPI PUSH2 0x708 PUSH2 0x673 JUMP JUMPDEST JUMPDEST PUSH2 0x712 DUP3 PUSH2 0x662 JUMP JUMPDEST SWAP1 POP PUSH1 0x20 DUP2 ADD SWAP1 POP SWAP2 SWAP1 POP JUMP JUMPDEST DUP3 DUP2 DUP4 CALLDATACOPY PUSH1 0x0 DUP4 DUP4 ADD MSTORE POP POP POP JUMP JUMPDEST PUSH1 0x0 PUSH2 0x741 PUSH2 0x73C DUP5 PUSH2 0x6EE JUMP JUMPDEST PUSH2 0x6D3 JUMP JUMPDEST SWAP1 POP DUP3 DUP2 MSTORE PUSH1 0x20 DUP2 ADD DUP5 DUP5 DUP5 ADD GT ISZERO PUSH2 0x75D JUMPI PUSH2 0x75C PUSH2 0x65D JUMP JUMPDEST JUMPDEST PUSH2 0x768 DUP5 DUP3 DUP6 PUSH2 0x71F JUMP JUMPDEST POP SWAP4 SWAP3 POP POP POP JUMP JUMPDEST PUSH1 0x0 DUP3 PUSH1 0x1F DUP4 ADD SLT PUSH2 0x785 JUMPI PUSH2 0x784 PUSH2 0x658 JUMP JUMPDEST JUMPDEST DUP2 CALLDATALOAD PUSH2 0x795 DUP5 DUP3 PUSH1 0x20 DUP7 ADD PUSH2 0x72E JUMP JUMPDEST SWAP2 POP POP SWAP3 SWAP2 POP POP JUMP JUMPDEST PUSH1 0x0 DUP1 PUSH1 0x40 DUP4 DUP6 SUB SLT ISZERO PUSH2 0x7B5 JUMPI PUSH2 0x7B4 PUSH2 0x5D8 JUMP JUMPDEST JUMPDEST PUSH1 0x0 DUP4 ADD CALLDATALOAD PUSH8 0xFFFFFFFFFFFFFFFF DUP2 GT ISZERO PUSH2 0x7D3 JUMPI PUSH2 0x7D2 PUSH2 0x5DD JUMP JUMPDEST JUMPDEST PUSH2 0x7DF DUP6 DUP3 DUP7 ADD PUSH2 0x770 JUMP JUMPDEST SWAP3 POP POP PUSH1 0x20 PUSH2 0x7F0 DUP6 DUP3 DUP7 ADD PUSH2 0x603 JUMP JUMPDEST SWAP2 POP POP SWAP3 POP SWAP3 SWAP1 POP JUMP JUMPDEST PUSH2 0x803 DUP2 PUSH2 0x5E2 JUMP JUMPDEST DUP3 MSTORE POP POP JUMP JUMPDEST PUSH1 0x0 PUSH1 0x20 DUP3 ADD SWAP1 POP PUSH2 0x81E PUSH1 0x0 DUP4 ADD DUP5 PUSH2 0x7FA JUMP JUMPDEST SWAP3 SWAP2 POP POP JUMP JUMPDEST PUSH1 0x0 PUSH1 0x20 DUP3 DUP5 SUB SLT ISZERO PUSH2 0x83A JUMPI PUSH2 0x839 PUSH2 0x5D8 JUMP JUMPDEST JUMPDEST PUSH1 0x0 PUSH2 0x848 DUP5 DUP3 DUP6 ADD PUSH2 0x603 JUMP JUMPDEST SWAP2 POP POP SWAP3 SWAP2 POP POP JUMP JUMPDEST PUSH1 0x0 DUP2 MLOAD SWAP1 POP SWAP2 SWAP1 POP JUMP JUMPDEST PUSH1 0x0 DUP3 DUP3 MSTORE PUSH1 0x20 DUP3 ADD SWAP1 POP SWAP3 SWAP2 POP POP JUMP JUMPDEST PUSH1 0x0 JUMPDEST DUP4 DUP2 LT ISZERO PUSH2 0x88B JUMPI DUP1 DUP3 ADD MLOAD DUP2 DUP5 ADD MSTORE PUSH1 0x20 DUP2 ADD SWAP1 POP PUSH2 0x870 JUMP JUMPDEST PUSH1 0x0 DUP5 DUP5 ADD MSTORE POP POP POP POP JUMP JUMPDEST PUSH1 0x0 PUSH2 0x8A2 DUP3 PUSH2 0x851 JUMP JUMPDEST PUSH2 0x8AC DUP2 DUP6 PUSH2 0x85C JUMP JUMPDEST SWAP4 POP PUSH2 0x8BC DUP2 DUP6 PUSH1 0x20 DUP7 ADD PUSH2 0x86D JUMP JUMPDEST PUSH2 0x8C5 DUP2 PUSH2 0x662 JUMP JUMPDEST DUP5 ADD SWAP2 POP POP SWAP3 SWAP2 POP POP JUMP JUMPDEST PUSH1 0x0 PUSH1 0x80 DUP3 ADD SWAP1 POP PUSH2 0x8E5 PUSH1 0x0 DUP4 ADD DUP8 PUSH2 0x7FA JUMP JUMPDEST DUP2 DUP2 SUB PUSH1 0x20 DUP4 ADD MSTORE PUSH2 0x8F7 DUP2 DUP7 PUSH2 0x897 JUMP JUMPDEST SWAP1 POP PUSH2 0x906 PUSH1 0x40 DUP4 ADD DUP6 PUSH2 0x7FA JUMP JUMPDEST PUSH2 0x913 PUSH1 0x60 DUP4 ADD DUP5 PUSH2 0x7FA JUMP JUMPDEST SWAP6 SWAP5 POP POP POP POP POP JUMP JUMPDEST PUSH2 0x925 DUP2 PUSH2 0x5E2 JUMP JUMPDEST DUP3 MSTORE POP POP JUMP JUMPDEST PUSH1 0x0 DUP3 DUP3 MSTORE PUSH1 0x20 DUP3 ADD SWAP1 POP SWAP3 SWAP2 POP POP JUMP JUMPDEST PUSH1 0x0 PUSH2 0x947 DUP3 PUSH2 0x851 JUMP JUMPDEST PUSH2 0x951 DUP2 DUP6 PUSH2 0x92B JUMP JUMPDEST SWAP4 POP PUSH2 0x961 DUP2 DUP6 PUSH1 0x20 DUP7 ADD PUSH2 0x86D JUMP JUMPDEST PUSH2 0x96A DUP2 PUSH2 0x662 JUMP JUMPDEST DUP5 ADD SWAP2 POP POP SWAP3 SWAP2 POP POP JUMP JUMPDEST PUSH1 0x0 PUSH1 0x80 DUP4 ADD PUSH1 0x0 DUP4 ADD MLOAD PUSH2 0x98D PUSH1 0x0 DUP7 ADD DUP3 PUSH2 0x91C JUMP JUMPDEST POP PUSH1 0x20 DUP4 ADD MLOAD DUP5 DUP3 SUB PUSH1 0x20 DUP7 ADD MSTORE PUSH2 0x9A5 DUP3 DUP3 PUSH2 0x93C JUMP JUMPDEST SWAP2 POP POP PUSH1 0x40 DUP4 ADD MLOAD PUSH2 0x9BA PUSH1 0x40 DUP7 ADD DUP3 PUSH2 0x91C JUMP JUMPDEST POP PUSH1 0x60 DUP4 ADD MLOAD PUSH2 0x9CD PUSH1 0x60 DUP7 ADD DUP3 PUSH2 0x91C JUMP JUMPDEST POP DUP1 SWAP2 POP POP SWAP3 SWAP2 POP POP JUMP JUMPDEST PUSH1 0x0 PUSH1 0x20 DUP3 ADD SWAP1 POP DUP2 DUP2 SUB PUSH1 0x0 DUP4 ADD MSTORE PUSH2 0x9F2 DUP2 DUP5 PUSH2 0x975 JUMP JUMPDEST SWAP1 POP SWAP3 SWAP2 POP POP JUMP JUMPDEST PUSH1 0x0 PUSH20 0xFFFFFFFFFFFFFFFFFFFFFFFFFFFFFFFFFFFFFFFF DUP3 AND SWAP1 POP SWAP2 SWAP1 POP JUMP JUMPDEST PUSH1 0x0 PUSH2 0xA25 DUP3 PUSH2 0x9FA JUMP JUMPDEST SWAP1 POP SWAP2 SWAP1 POP JUMP JUMPDEST PUSH2 0xA35 DUP2 PUSH2 0xA1A JUMP JUMPDEST DUP3 MSTORE POP POP JUMP JUMPDEST PUSH1 0x0 PUSH1 0x20 DUP3 ADD SWAP1 POP PUSH2 0xA50 PUSH1 0x0 DUP4 ADD DUP5 PUSH2 0xA2C JUMP JUMPDEST SWAP3 SWAP2 POP POP JUMP JUMPDEST PUSH32 0x4F6E6C792061646D696E2063616E207573652066756E64000000000000000000 PUSH1 0x0 DUP3 ADD MSTORE POP JUMP JUMPDEST PUSH1 0x0 PUSH2 0xA8C PUSH1 0x17 DUP4 PUSH2 0x85C JUMP JUMPDEST SWAP2 POP PUSH2 0xA97 DUP3 PUSH2 0xA56 JUMP JUMPDEST PUSH1 0x20 DUP3 ADD SWAP1 POP SWAP2 SWAP1 POP JUMP JUMPDEST PUSH1 0x0 PUSH1 0x20 DUP3 ADD SWAP1 POP DUP2 DUP2 SUB PUSH1 0x0 DUP4 ADD MSTORE PUSH2 0xABB DUP2 PUSH2 0xA7F JUMP JUMPDEST SWAP1 POP SWAP2 SWAP1 POP JUMP JUMPDEST PUSH32 0x4E487B7100000000000000000000000000000000000000000000000000000000 PUSH1 0x0 MSTORE PUSH1 0x11 PUSH1 0x4 MSTORE PUSH1 0x24 PUSH1 0x0 REVERT JUMPDEST PUSH1 0x0 PUSH2 0xAFC DUP3 PUSH2 0x5E2 JUMP JUMPDEST SWAP2 POP PUSH2 0xB07 DUP4 PUSH2 0x5E2 JUMP JUMPDEST SWAP3 POP DUP3 DUP3 ADD SWAP1 POP DUP1 DUP3 GT ISZERO PUSH2 0xB1F JUMPI PUSH2 0xB1E PUSH2 0xAC2 JUMP JUMPDEST JUMPDEST SWAP3 SWAP2 POP POP JUMP JUMPDEST PUSH32 0x4E6F7420656E6F7567682066756E647300000000000000000000000000000000 PUSH1 0x0 DUP3 ADD MSTORE POP JUMP JUMPDEST PUSH1 0x0 PUSH2 0xB5B PUSH1 0x10 DUP4 PUSH2 0x85C JUMP JUMPDEST SWAP2 POP PUSH2 0xB66 DUP3 PUSH2 0xB25 JUMP JUMPDEST PUSH1 0x20 DUP3 ADD SWAP1 POP SWAP2 SWAP1 POP JUMP JUMPDEST PUSH1 0x0 PUSH1 0x20 DUP3 ADD SWAP1 POP DUP2 DUP2 SUB PUSH1 0x0 DUP4 ADD MSTORE PUSH2 0xB8A DUP2 PUSH2 0xB4E JUMP JUMPDEST SWAP1 POP SWAP2 SWAP1 POP JUMP JUMPDEST PUSH32 0x4F6E6C792061646D696E2063616E2061646420736368656D6500000000000000 PUSH1 0x0 DUP3 ADD MSTORE POP JUMP JUMPDEST PUSH1 0x0 PUSH2 0xBC7 PUSH1 0x19 DUP4 PUSH2 0x85C JUMP JUMPDEST SWAP2 POP PUSH2 0xBD2 DUP3 PUSH2 0xB91 JUMP JUMPDEST PUSH1 0x20 DUP3 ADD SWAP1 POP SWAP2 SWAP1 POP JUMP JUMPDEST PUSH1 0x0 PUSH1 0x20 DUP3 ADD SWAP1 POP DUP2 DUP2 SUB PUSH1 0x0 DUP4 ADD MSTORE PUSH2 0xBF6 DUP2 PUSH2 0xBBA JUMP JUMPDEST SWAP1 POP SWAP2 SWAP1 POP JUMP JUMPDEST PUSH1 0x0 PUSH2 0xC08 DUP3 PUSH2 0x5E2 JUMP JUMPDEST SWAP2 POP PUSH32 0xFFFFFFFFFFFFFFFFFFFFFFFFFFFFFFFFFFFFFFFFFFFFFFFFFFFFFFFFFFFFFFFF DUP3 SUB PUSH2 0xC3A JUMPI PUSH2 0xC39 PUSH2 0xAC2 JUMP JUMPDEST JUMPDEST PUSH1 0x1 DUP3 ADD SWAP1 POP SWAP2 SWAP1 POP JUMP JUMPDEST PUSH32 0x4E487B7100000000000000000000000000000000000000000000000000000000 PUSH1 0x0 MSTORE PUSH1 0x22 PUSH1 0x4 MSTORE PUSH1 0x24 PUSH1 0x0 REVERT JUMPDEST PUSH1 0x0 PUSH1 0x2 DUP3 DIV SWAP1 POP PUSH1 0x1 DUP3 AND DUP1 PUSH2 0xC8C JUMPI PUSH1 0x7F DUP3 AND SWAP2 POP JUMPDEST PUSH1 0x20 DUP3 LT DUP2 SUB PUSH2 0xC9F JUMPI PUSH2 0xC9E PUSH2 0xC45 JUMP JUMPDEST JUMPDEST POP SWAP2 SWAP1 POP JUMP JUMPDEST PUSH1 0x0 DUP2 SWAP1 POP DUP2 PUSH1 0x0 MSTORE PUSH1 0x20 PUSH1 0x0 KECCAK256 SWAP1 POP SWAP2 SWAP1 POP JUMP JUMPDEST PUSH1 0x0 PUSH1 0x20 PUSH1 0x1F DUP4 ADD DIV SWAP1 POP SWAP2 SWAP1 POP JUMP JUMPDEST PUSH1 0x0 DUP3 DUP3 SHL SWAP1 POP SWAP3 SWAP2 POP POP JUMP JUMPDEST PUSH1 0x0 PUSH1 0x8 DUP4 MUL PUSH2 0xD07 PUSH32 0xFFFFFFFFFFFFFFFFFFFFFFFFFFFFFFFFFFFFFFFFFFFFFFFFFFFFFFFFFFFFFFFF DUP3 PUSH2 0xCCA JUMP JUMPDEST PUSH2 0xD11 DUP7 DUP4 PUSH2 0xCCA JUMP JUMPDEST SWAP6 POP DUP1 NOT DUP5 AND SWAP4 POP DUP1 DUP7 AND DUP5 OR SWAP3 POP POP POP SWAP4 SWAP3 POP POP POP JUMP JUMPDEST PUSH1 0x0 DUP2 SWAP1 POP SWAP2 SWAP1 POP JUMP JUMPDEST PUSH1 0x0 PUSH2 0xD4E PUSH2 0xD49 PUSH2 0xD44 DUP5 PUSH2 0x5E2 JUMP JUMPDEST PUSH2 0xD29 JUMP JUMPDEST PUSH2 0x5E2 JUMP JUMPDEST SWAP1 POP SWAP2 SWAP1 POP JUMP JUMPDEST PUSH1 0x0 DUP2 SWAP1 POP SWAP2 SWAP1 POP JUMP JUMPDEST PUSH2 0xD68 DUP4 PUSH2 0xD33 JUMP JUMPDEST PUSH2 0xD7C PUSH2 0xD74 DUP3 PUSH2 0xD55 JUMP JUMPDEST DUP5 DUP5 SLOAD PUSH2 0xCD7 JUMP JUMPDEST DUP3 SSTORE POP POP POP POP JUMP JUMPDEST PUSH1 0x0 SWAP1 JUMP JUMPDEST PUSH2 0xD91 PUSH2 0xD84 JUMP JUMPDEST PUSH2 0xD9C DUP2 DUP5 DUP5 PUSH2 0xD5F JUMP JUMPDEST POP POP POP JUMP JUMPDEST JUMPDEST DUP2 DUP2 LT ISZERO PUSH2 0xDC0 JUMPI PUSH2 0xDB5 PUSH1 0x0 DUP3 PUSH2 0xD89 JUMP JUMPDEST PUSH1 0x1 DUP2 ADD SWAP1 POP PUSH2 0xDA2 JUMP JUMPDEST POP POP JUMP JUMPDEST PUSH1 0x1F DUP3 GT ISZERO PUSH2 0xE05 JUMPI PUSH2 0xDD6 DUP2 PUSH2 0xCA5 JUMP JUMPDEST PUSH2 0xDDF DUP5 PUSH2 0xCBA JUMP JUMPDEST DUP2 ADD PUSH1 0x20 DUP6 LT ISZERO PUSH2 0xDEE JUMPI DUP2 SWAP1 POP JUMPDEST PUSH2 0xE02 PUSH2 0xDFA DUP6 PUSH2 0xCBA JUMP JUMPDEST DUP4 ADD DUP3 PUSH2 0xDA1 JUMP JUMPDEST POP POP JUMPDEST POP POP POP JUMP JUMPDEST PUSH1 0x0 DUP3 DUP3 SHR SWAP1 POP SWAP3 SWAP2 POP POP JUMP JUMPDEST PUSH1 0x0 PUSH2 0xE28 PUSH1 0x0 NOT DUP5 PUSH1 0x8 MUL PUSH2 0xE0A JUMP JUMPDEST NOT DUP1 DUP4 AND SWAP2 POP POP SWAP3 SWAP2 POP POP JUMP JUMPDEST PUSH1 0x0 PUSH2 0xE41 DUP4 DUP4 PUSH2 0xE17 JUMP JUMPDEST SWAP2 POP DUP3 PUSH1 0x2 MUL DUP3 OR SWAP1 POP SWAP3 SWAP2 POP POP JUMP JUMPDEST PUSH2 0xE5A DUP3 PUSH2 0x851 JUMP JUMPDEST PUSH8 0xFFFFFFFFFFFFFFFF DUP2 GT ISZERO PUSH2 0xE73 JUMPI PUSH2 0xE72 PUSH2 0x673 JUMP JUMPDEST JUMPDEST PUSH2 0xE7D DUP3 SLOAD PUSH2 0xC74 JUMP JUMPDEST PUSH2 0xE88 DUP3 DUP3 DUP6 PUSH2 0xDC4 JUMP JUMPDEST PUSH1 0x0 PUSH1 0x20 SWAP1 POP PUSH1 0x1F DUP4 GT PUSH1 0x1 DUP2 EQ PUSH2 0xEBB JUMPI PUSH1 0x0 DUP5 ISZERO PUSH2 0xEA9 JUMPI DUP3 DUP8 ADD MLOAD SWAP1 POP JUMPDEST PUSH2 0xEB3 DUP6 DUP3 PUSH2 0xE35 JUMP JUMPDEST DUP7 SSTORE POP PUSH2 0xF1B JUMP JUMPDEST PUSH1 0x1F NOT DUP5 AND PUSH2 0xEC9 DUP7 PUSH2 0xCA5 JUMP JUMPDEST PUSH1 0x0 JUMPDEST DUP3 DUP2 LT ISZERO PUSH2 0xEF1 JUMPI DUP5 DUP10 ADD MLOAD DUP3 SSTORE PUSH1 0x1 DUP3 ADD SWAP2 POP PUSH1 0x20 DUP6 ADD SWAP5 POP PUSH1 0x20 DUP2 ADD SWAP1 POP PUSH2 0xECC JUMP JUMPDEST DUP7 DUP4 LT ISZERO PUSH2 0xF0E JUMPI DUP5 DUP10 ADD MLOAD PUSH2 0xF0A PUSH1 0x1F DUP10 AND DUP3 PUSH2 0xE17 JUMP JUMPDEST DUP4 SSTORE POP JUMPDEST PUSH1 0x1 PUSH1 0x2 DUP9 MUL ADD DUP9 SSTORE POP POP POP JUMPDEST POP POP POP POP POP POP JUMP JUMPDEST PUSH1 0x0 PUSH1 0x40 DUP3 ADD SWAP1 POP DUP2 DUP2 SUB PUSH1 0x0 DUP4 ADD MSTORE PUSH2 0xF3D DUP2 DUP6 PUSH2 0x897 JUMP JUMPDEST SWAP1 POP PUSH2 0xF4C PUSH1 0x20 DUP4 ADD DUP5 PUSH2 0x7FA JUMP JUMPDEST SWAP4 SWAP3 POP POP POP JUMP INVALID LOG2 PUSH5 0x6970667358 0x22 SLT KECCAK256 REVERT PUSH29 0x139D52BEB910385E4BE6B76EECCDEED2698636C519572C46E0091C0CDA 0xE7 PUSH5 0x736F6C6343 STOP ADDMOD SHR STOP CALLER "},"methodIdentifiers":{"addScheme(string,uint256)":"76e4deed","admin()":"f851a440","getScheme(uint256)":"e35bb0fc","schemeCount()":"90e6b970","schemes(uint256)":"bb52085e","useFund(uint256,uint256)":"088462dd"}}}}}